{
  "_format": "hh-sol-artifact-1",
  "contractName": "Prereveal",
  "sourceName": "contracts/Prereveal.sol",
  "abi": [
    {
      "inputs": [],
      "stateMutability": "nonpayable",
      "type": "constructor"
    },
    {
      "inputs": [
        {
          "internalType": "address",
          "name": "sender",
          "type": "address"
        },
        {
          "internalType": "uint256",
          "name": "tokenId",
          "type": "uint256"
        },
        {
          "internalType": "address",
          "name": "owner",
          "type": "address"
        }
      ],
      "name": "ERC721IncorrectOwner",
      "type": "error"
    },
    {
      "inputs": [
        {
          "internalType": "address",
          "name": "operator",
          "type": "address"
        },
        {
          "internalType": "uint256",
          "name": "tokenId",
          "type": "uint256"
        }
      ],
      "name": "ERC721InsufficientApproval",
      "type": "error"
    },
    {
      "inputs": [
        {
          "internalType": "address",
          "name": "approver",
          "type": "address"
        }
      ],
      "name": "ERC721InvalidApprover",
      "type": "error"
    },
    {
      "inputs": [
        {
          "internalType": "address",
          "name": "operator",
          "type": "address"
        }
      ],
      "name": "ERC721InvalidOperator",
      "type": "error"
    },
    {
      "inputs": [
        {
          "internalType": "address",
          "name": "owner",
          "type": "address"
        }
      ],
      "name": "ERC721InvalidOwner",
      "type": "error"
    },
    {
      "inputs": [
        {
          "internalType": "address",
          "name": "receiver",
          "type": "address"
        }
      ],
      "name": "ERC721InvalidReceiver",
      "type": "error"
    },
    {
      "inputs": [
        {
          "internalType": "address",
          "name": "sender",
          "type": "address"
        }
      ],
      "name": "ERC721InvalidSender",
      "type": "error"
    },
    {
      "inputs": [
        {
          "internalType": "uint256",
          "name": "tokenId",
          "type": "uint256"
        }
      ],
      "name": "ERC721NonexistentToken",
      "type": "error"
    },
    {
      "inputs": [
        {
          "internalType": "address",
          "name": "owner",
          "type": "address"
        }
      ],
      "name": "OwnableInvalidOwner",
      "type": "error"
    },
    {
      "inputs": [
        {
          "internalType": "address",
          "name": "account",
          "type": "address"
        }
      ],
      "name": "OwnableUnauthorizedAccount",
      "type": "error"
    },
    {
      "anonymous": false,
      "inputs": [
        {
          "indexed": true,
          "internalType": "address",
          "name": "owner",
          "type": "address"
        },
        {
          "indexed": true,
          "internalType": "address",
          "name": "approved",
          "type": "address"
        },
        {
          "indexed": true,
          "internalType": "uint256",
          "name": "tokenId",
          "type": "uint256"
        }
      ],
      "name": "Approval",
      "type": "event"
    },
    {
      "anonymous": false,
      "inputs": [
        {
          "indexed": true,
          "internalType": "address",
          "name": "owner",
          "type": "address"
        },
        {
          "indexed": true,
          "internalType": "address",
          "name": "operator",
          "type": "address"
        },
        {
          "indexed": false,
          "internalType": "bool",
          "name": "approved",
          "type": "bool"
        }
      ],
      "name": "ApprovalForAll",
      "type": "event"
    },
    {
      "anonymous": false,
      "inputs": [
        {
          "indexed": true,
          "internalType": "address",
          "name": "previousOwner",
          "type": "address"
        },
        {
          "indexed": true,
          "internalType": "address",
          "name": "newOwner",
          "type": "address"
        }
      ],
      "name": "OwnershipTransferred",
      "type": "event"
    },
    {
      "anonymous": false,
      "inputs": [
        {
          "indexed": true,
          "internalType": "address",
          "name": "from",
          "type": "address"
        },
        {
          "indexed": true,
          "internalType": "address",
          "name": "to",
          "type": "address"
        },
        {
          "indexed": true,
          "internalType": "uint256",
          "name": "tokenId",
          "type": "uint256"
        }
      ],
      "name": "Transfer",
      "type": "event"
    },
    {
      "anonymous": false,
      "inputs": [
        {
          "indexed": false,
          "internalType": "uint256",
          "name": "_tokenId",
          "type": "uint256"
        },
        {
          "indexed": false,
          "internalType": "string",
          "name": "_uri",
          "type": "string"
        },
        {
          "indexed": false,
          "internalType": "bool",
          "name": "_isReveal",
          "type": "bool"
        }
      ],
      "name": "URILog",
      "type": "event"
    },
    {
      "inputs": [
        {
          "internalType": "address",
          "name": "to",
          "type": "address"
        },
        {
          "internalType": "uint256",
          "name": "tokenId",
          "type": "uint256"
        }
      ],
      "name": "approve",
      "outputs": [],
      "stateMutability": "nonpayable",
      "type": "function"
    },
    {
      "inputs": [
        {
          "internalType": "address",
          "name": "owner",
          "type": "address"
        }
      ],
      "name": "balanceOf",
      "outputs": [
        {
          "internalType": "uint256",
          "name": "",
          "type": "uint256"
        }
      ],
      "stateMutability": "view",
      "type": "function"
    },
    {
      "inputs": [
        {
          "internalType": "uint256",
          "name": "tokenId",
          "type": "uint256"
        }
      ],
      "name": "getApproved",
      "outputs": [
        {
          "internalType": "address",
          "name": "",
          "type": "address"
        }
      ],
      "stateMutability": "view",
      "type": "function"
    },
    {
      "inputs": [
        {
          "internalType": "address",
          "name": "owner",
          "type": "address"
        },
        {
          "internalType": "address",
          "name": "operator",
          "type": "address"
        }
      ],
      "name": "isApprovedForAll",
      "outputs": [
        {
          "internalType": "bool",
          "name": "",
          "type": "bool"
        }
      ],
      "stateMutability": "view",
      "type": "function"
    },
    {
      "inputs": [
        {
          "internalType": "uint256",
          "name": "",
          "type": "uint256"
        }
      ],
      "name": "items",
      "outputs": [
        {
          "internalType": "string",
          "name": "uri",
          "type": "string"
        },
        {
          "internalType": "bool",
          "name": "isReveal",
          "type": "bool"
        }
      ],
      "stateMutability": "view",
      "type": "function"
    },
    {
      "inputs": [],
      "name": "name",
      "outputs": [
        {
          "internalType": "string",
          "name": "",
          "type": "string"
        }
      ],
      "stateMutability": "view",
      "type": "function"
    },
    {
      "inputs": [],
      "name": "nextTokenId",
      "outputs": [
        {
          "internalType": "uint256",
          "name": "",
          "type": "uint256"
        }
      ],
      "stateMutability": "view",
      "type": "function"
    },
    {
      "inputs": [],
      "name": "owner",
      "outputs": [
        {
          "internalType": "address",
          "name": "",
          "type": "address"
        }
      ],
      "stateMutability": "view",
      "type": "function"
    },
    {
      "inputs": [
        {
          "internalType": "uint256",
          "name": "tokenId",
          "type": "uint256"
        }
      ],
      "name": "ownerOf",
      "outputs": [
        {
          "internalType": "address",
          "name": "",
          "type": "address"
        }
      ],
      "stateMutability": "view",
      "type": "function"
    },
    {
      "inputs": [],
      "name": "renounceOwnership",
      "outputs": [],
      "stateMutability": "nonpayable",
      "type": "function"
    },
    {
      "inputs": [
        {
          "internalType": "uint256",
          "name": "tokenId",
          "type": "uint256"
        },
        {
          "internalType": "string",
          "name": "baseURI_",
          "type": "string"
        }
      ],
      "name": "revealAndSetBaseURI",
      "outputs": [],
      "stateMutability": "nonpayable",
      "type": "function"
    },
    {
      "inputs": [
        {
          "internalType": "address",
          "name": "to",
          "type": "address"
        }
      ],
      "name": "safeMint",
      "outputs": [],
      "stateMutability": "nonpayable",
      "type": "function"
    },
    {
      "inputs": [
        {
          "internalType": "address",
          "name": "from",
          "type": "address"
        },
        {
          "internalType": "address",
          "name": "to",
          "type": "address"
        },
        {
          "internalType": "uint256",
          "name": "tokenId",
          "type": "uint256"
        }
      ],
      "name": "safeTransferFrom",
      "outputs": [],
      "stateMutability": "nonpayable",
      "type": "function"
    },
    {
      "inputs": [
        {
          "internalType": "address",
          "name": "from",
          "type": "address"
        },
        {
          "internalType": "address",
          "name": "to",
          "type": "address"
        },
        {
          "internalType": "uint256",
          "name": "tokenId",
          "type": "uint256"
        },
        {
          "internalType": "bytes",
          "name": "data",
          "type": "bytes"
        }
      ],
      "name": "safeTransferFrom",
      "outputs": [],
      "stateMutability": "nonpayable",
      "type": "function"
    },
    {
      "inputs": [
        {
          "internalType": "address",
          "name": "operator",
          "type": "address"
        },
        {
          "internalType": "bool",
          "name": "approved",
          "type": "bool"
        }
      ],
      "name": "setApprovalForAll",
      "outputs": [],
      "stateMutability": "nonpayable",
      "type": "function"
    },
    {
      "inputs": [
        {
          "internalType": "uint256",
          "name": "tokenId",
          "type": "uint256"
        },
        {
          "internalType": "string",
          "name": "_prerevealedURI",
          "type": "string"
        }
      ],
      "name": "setPrerevealURI",
      "outputs": [],
      "stateMutability": "nonpayable",
      "type": "function"
    },
    {
      "inputs": [
        {
          "internalType": "bytes4",
          "name": "interfaceId",
          "type": "bytes4"
        }
      ],
      "name": "supportsInterface",
      "outputs": [
        {
          "internalType": "bool",
          "name": "",
          "type": "bool"
        }
      ],
      "stateMutability": "view",
      "type": "function"
    },
    {
      "inputs": [],
      "name": "symbol",
      "outputs": [
        {
          "internalType": "string",
          "name": "",
          "type": "string"
        }
      ],
      "stateMutability": "view",
      "type": "function"
    },
    {
      "inputs": [
        {
          "internalType": "uint256",
          "name": "tokenId",
          "type": "uint256"
        }
      ],
      "name": "tokenURI",
      "outputs": [
        {
          "internalType": "string",
          "name": "",
          "type": "string"
        }
      ],
      "stateMutability": "view",
      "type": "function"
    },
    {
      "inputs": [
        {
          "internalType": "uint256",
          "name": "_tokenId",
          "type": "uint256"
        }
      ],
      "name": "tokenURL",
      "outputs": [
        {
          "internalType": "string",
          "name": "",
          "type": "string"
        },
        {
          "internalType": "bool",
          "name": "",
          "type": "bool"
        }
      ],
      "stateMutability": "view",
      "type": "function"
    },
    {
      "inputs": [
        {
          "internalType": "address",
          "name": "from",
          "type": "address"
        },
        {
          "internalType": "address",
          "name": "to",
          "type": "address"
        },
        {
          "internalType": "uint256",
          "name": "tokenId",
          "type": "uint256"
        }
      ],
      "name": "transferFrom",
      "outputs": [],
      "stateMutability": "nonpayable",
      "type": "function"
    },
    {
      "inputs": [
        {
          "internalType": "address",
          "name": "newOwner",
          "type": "address"
        }
      ],
      "name": "transferOwnership",
      "outputs": [],
      "stateMutability": "nonpayable",
      "type": "function"
    }
  ],
  "bytecode": "0x608060405260405180606001604052806039815260200162002dd060399139600890816200002e9190620004be565b5060405180602001604052806000815250600990816200004f9190620004be565b503480156200005d57600080fd5b50336040518060400160405280600781526020017f4d79546f6b656e000000000000000000000000000000000000000000000000008152506040518060400160405280600381526020017f4d544b00000000000000000000000000000000000000000000000000000000008152508160009081620000dc9190620004be565b508060019081620000ee9190620004be565b505050600073ffffffffffffffffffffffffffffffffffffffff168173ffffffffffffffffffffffffffffffffffffffff1603620001665760006040517f1e4fbdf70000000000000000000000000000000000000000000000000000000081526004016200015d9190620005ea565b60405180910390fd5b62000177816200017e60201b60201c565b5062000607565b6000600660009054906101000a900473ffffffffffffffffffffffffffffffffffffffff16905081600660006101000a81548173ffffffffffffffffffffffffffffffffffffffff021916908373ffffffffffffffffffffffffffffffffffffffff1602179055508173ffffffffffffffffffffffffffffffffffffffff168173ffffffffffffffffffffffffffffffffffffffff167f8be0079c531659141344cd1fd0a4f28419497f9722a3daafe3b4186f6b6457e060405160405180910390a35050565b600081519050919050565b7f4e487b7100000000000000000000000000000000000000000000000000000000600052604160045260246000fd5b7f4e487b7100000000000000000000000000000000000000000000000000000000600052602260045260246000fd5b60006002820490506001821680620002c657607f821691505b602082108103620002dc57620002db6200027e565b5b50919050565b60008190508160005260206000209050919050565b60006020601f8301049050919050565b600082821b905092915050565b600060088302620003467fffffffffffffffffffffffffffffffffffffffffffffffffffffffffffffffff8262000307565b62000352868362000307565b95508019841693508086168417925050509392505050565b6000819050919050565b6000819050919050565b60006200039f6200039962000393846200036a565b62000374565b6200036a565b9050919050565b6000819050919050565b620003bb836200037e565b620003d3620003ca82620003a6565b84845462000314565b825550505050565b600090565b620003ea620003db565b620003f7818484620003b0565b505050565b5b818110156200041f5762000413600082620003e0565b600181019050620003fd565b5050565b601f8211156200046e576200043881620002e2565b6200044384620002f7565b8101602085101562000453578190505b6200046b6200046285620002f7565b830182620003fc565b50505b505050565b600082821c905092915050565b6000620004936000198460080262000473565b1980831691505092915050565b6000620004ae838362000480565b9150826002028217905092915050565b620004c98262000244565b67ffffffffffffffff811115620004e557620004e46200024f565b5b620004f18254620002ad565b620004fe82828562000423565b600060209050601f83116001811462000536576000841562000521578287015190505b6200052d8582620004a0565b8655506200059d565b601f1984166200054686620002e2565b60005b82811015620005705784890151825560018201915060208501945060208101905062000549565b868310156200059057848901516200058c601f89168262000480565b8355505b6001600288020188555050505b505050505050565b600073ffffffffffffffffffffffffffffffffffffffff82169050919050565b6000620005d282620005a5565b9050919050565b620005e481620005c5565b82525050565b6000602082019050620006016000830184620005d9565b92915050565b6127b980620006176000396000f3fe608060405234801561001057600080fd5b50600436106101425760003560e01c806375794a3c116100b8578063b88d4fde1161007c578063b88d4fde14610362578063bfb231d21461037e578063c87b56dd146103af578063e901183c146103df578063e985e9c5146103fb578063f2fde38b1461042b57610142565b806375794a3c146102d0578063892beb2d146102ee5780638da5cb5b1461030a57806395d89b4114610328578063a22cb4651461034657610142565b806323b872dd1161010a57806323b872dd1461021257806340d097c31461022e57806342842e0e1461024a5780636352211e1461026657806370a0823114610296578063715018a6146102c657610142565b806301ffc9a71461014757806306fdde0314610177578063081812fc14610195578063095ea7b3146101c5578063154e839e146101e1575b600080fd5b610161600480360381019061015c9190611b5d565b610447565b60405161016e9190611ba5565b60405180910390f35b61017f610529565b60405161018c9190611c50565b60405180910390f35b6101af60048036038101906101aa9190611ca8565b6105bb565b6040516101bc9190611d16565b60405180910390f35b6101df60048036038101906101da9190611d5d565b6105d7565b005b6101fb60048036038101906101f69190611ca8565b6105ed565b604051610209929190611d9d565b60405180910390f35b61022c60048036038101906102279190611dcd565b6107b9565b005b61024860048036038101906102439190611e20565b6108bb565b005b610264600480360381019061025f9190611dcd565b610911565b005b610280600480360381019061027b9190611ca8565b610931565b60405161028d9190611d16565b60405180910390f35b6102b060048036038101906102ab9190611e20565b610943565b6040516102bd9190611e5c565b60405180910390f35b6102ce6109fd565b005b6102d8610a11565b6040516102e59190611e5c565b60405180910390f35b61030860048036038101906103039190611fac565b610a17565b005b610312610a76565b60405161031f9190611d16565b60405180910390f35b610330610aa0565b60405161033d9190611c50565b60405180910390f35b610360600480360381019061035b9190612034565b610b32565b005b61037c60048036038101906103779190612115565b610b48565b005b61039860048036038101906103939190611ca8565b610b65565b6040516103a6929190611d9d565b60405180910390f35b6103c960048036038101906103c49190611ca8565b610c1e565b6040516103d69190611c50565b60405180910390f35b6103f960048036038101906103f49190611fac565b610ce8565b005b61041560048036038101906104109190612198565b610d47565b6040516104229190611ba5565b60405180910390f35b61044560048036038101906104409190611e20565b610ddb565b005b60007f80ac58cd000000000000000000000000000000000000000000000000000000007bffffffffffffffffffffffffffffffffffffffffffffffffffffffff1916827bffffffffffffffffffffffffffffffffffffffffffffffffffffffff1916148061051257507f5b5e139f000000000000000000000000000000000000000000000000000000007bffffffffffffffffffffffffffffffffffffffffffffffffffffffff1916827bffffffffffffffffffffffffffffffffffffffffffffffffffffffff1916145b80610522575061052182610e61565b5b9050919050565b60606000805461053890612207565b80601f016020809104026020016040519081016040528092919081815260200182805461056490612207565b80156105b15780601f10610586576101008083540402835291602001916105b1565b820191906000526020600020905b81548152906001019060200180831161059457829003601f168201915b5050505050905090565b60006105c682610ecb565b506105d082610f53565b9050919050565b6105e982826105e4610f90565b610f98565b5050565b60606000600a600084815260200190815260200160002060010160009054906101000a900460ff16156106e957600a6000848152602001908152602001600020600001600a600085815260200190815260200160002060010160009054906101000a900460ff1681805461066090612207565b80601f016020809104026020016040519081016040528092919081815260200182805461068c90612207565b80156106d95780601f106106ae576101008083540402835291602001916106d9565b820191906000526020600020905b8154815290600101906020018083116106bc57829003601f168201915b50505050509150915091506107b4565b600a6000848152602001908152602001600020600001600a600085815260200190815260200160002060010160009054906101000a900460ff1681805461072f90612207565b80601f016020809104026020016040519081016040528092919081815260200182805461075b90612207565b80156107a85780601f1061077d576101008083540402835291602001916107a8565b820191906000526020600020905b81548152906001019060200180831161078b57829003601f168201915b50505050509150915091505b915091565b600073ffffffffffffffffffffffffffffffffffffffff168273ffffffffffffffffffffffffffffffffffffffff160361082b5760006040517f64a0ae920000000000000000000000000000000000000000000000000000000081526004016108229190611d16565b60405180910390fd5b600061083f838361083a610f90565b610faa565b90508373ffffffffffffffffffffffffffffffffffffffff168173ffffffffffffffffffffffffffffffffffffffff16146108b5578382826040517f64283d7b0000000000000000000000000000000000000000000000000000000081526004016108ac93929190612238565b60405180910390fd5b50505050565b6108c36111c4565b6000600760008154809291906108d89061229e565b9190505590506108e8828261124b565b6008600a6000838152602001908152602001600020600001908161090c91906124bd565b505050565b61092c83838360405180602001604052806000815250610b48565b505050565b600061093c82610ecb565b9050919050565b60008073ffffffffffffffffffffffffffffffffffffffff168273ffffffffffffffffffffffffffffffffffffffff16036109b65760006040517f89c62b640000000000000000000000000000000000000000000000000000000081526004016109ad9190611d16565b60405180910390fd5b600360008373ffffffffffffffffffffffffffffffffffffffff1673ffffffffffffffffffffffffffffffffffffffff168152602001908152602001600020549050919050565b610a056111c4565b610a0f6000611269565b565b60075481565b610a1f6111c4565b6001600a600084815260200190815260200160002060010160006101000a81548160ff02191690831515021790555080600a60008481526020019081526020016000206000019081610a7191906125a5565b505050565b6000600660009054906101000a900473ffffffffffffffffffffffffffffffffffffffff16905090565b606060018054610aaf90612207565b80601f0160208091040260200160405190810160405280929190818152602001828054610adb90612207565b8015610b285780601f10610afd57610100808354040283529160200191610b28565b820191906000526020600020905b815481529060010190602001808311610b0b57829003601f168201915b5050505050905090565b610b44610b3d610f90565b838361132f565b5050565b610b538484846107b9565b610b5f8484848461149e565b50505050565b600a602052806000526040600020600091509050806000018054610b8890612207565b80601f0160208091040260200160405190810160405280929190818152602001828054610bb490612207565b8015610c015780601f10610bd657610100808354040283529160200191610c01565b820191906000526020600020905b815481529060010190602001808311610be457829003601f168201915b5050505050908060010160009054906101000a900460ff16905082565b6060600a600083815260200190815260200160002060010160009054906101000a905050600a60008381526020019081526020016000206000018054610c6390612207565b80601f0160208091040260200160405190810160405280929190818152602001828054610c8f90612207565b8015610cdc5780601f10610cb157610100808354040283529160200191610cdc565b820191906000526020600020905b815481529060010190602001808311610cbf57829003601f168201915b50505050509050919050565b610cf06111c4565b6001600a600084815260200190815260200160002060010160006101000a81548160ff02191690831515021790555080600a60008481526020019081526020016000206000019081610d4291906125a5565b505050565b6000600560008473ffffffffffffffffffffffffffffffffffffffff1673ffffffffffffffffffffffffffffffffffffffff16815260200190815260200160002060008373ffffffffffffffffffffffffffffffffffffffff1673ffffffffffffffffffffffffffffffffffffffff16815260200190815260200160002060009054906101000a900460ff16905092915050565b610de36111c4565b600073ffffffffffffffffffffffffffffffffffffffff168173ffffffffffffffffffffffffffffffffffffffff1603610e555760006040517f1e4fbdf7000000000000000000000000000000000000000000000000000000008152600401610e4c9190611d16565b60405180910390fd5b610e5e81611269565b50565b60007f01ffc9a7000000000000000000000000000000000000000000000000000000007bffffffffffffffffffffffffffffffffffffffffffffffffffffffff1916827bffffffffffffffffffffffffffffffffffffffffffffffffffffffff1916149050919050565b600080610ed783611655565b9050600073ffffffffffffffffffffffffffffffffffffffff168173ffffffffffffffffffffffffffffffffffffffff1603610f4a57826040517f7e273289000000000000000000000000000000000000000000000000000000008152600401610f419190611e5c565b60405180910390fd5b80915050919050565b60006004600083815260200190815260200160002060009054906101000a900473ffffffffffffffffffffffffffffffffffffffff169050919050565b600033905090565b610fa58383836001611692565b505050565b600080610fb684611655565b9050600073ffffffffffffffffffffffffffffffffffffffff168373ffffffffffffffffffffffffffffffffffffffff1614610ff857610ff7818486611857565b5b600073ffffffffffffffffffffffffffffffffffffffff168173ffffffffffffffffffffffffffffffffffffffff16146110895761103a600085600080611692565b6001600360008373ffffffffffffffffffffffffffffffffffffffff1673ffffffffffffffffffffffffffffffffffffffff168152602001908152602001600020600082825403925050819055505b600073ffffffffffffffffffffffffffffffffffffffff168573ffffffffffffffffffffffffffffffffffffffff161461110c576001600360008773ffffffffffffffffffffffffffffffffffffffff1673ffffffffffffffffffffffffffffffffffffffff168152602001908152602001600020600082825401925050819055505b846002600086815260200190815260200160002060006101000a81548173ffffffffffffffffffffffffffffffffffffffff021916908373ffffffffffffffffffffffffffffffffffffffff160217905550838573ffffffffffffffffffffffffffffffffffffffff168273ffffffffffffffffffffffffffffffffffffffff167fddf252ad1be2c89b69c2b068fc378daa952ba7f163c4a11628f55a4df523b3ef60405160405180910390a4809150509392505050565b6111cc610f90565b73ffffffffffffffffffffffffffffffffffffffff166111ea610a76565b73ffffffffffffffffffffffffffffffffffffffff16146112495761120d610f90565b6040517f118cdaa70000000000000000000000000000000000000000000000000000000081526004016112409190611d16565b60405180910390fd5b565b61126582826040518060200160405280600081525061191b565b5050565b6000600660009054906101000a900473ffffffffffffffffffffffffffffffffffffffff16905081600660006101000a81548173ffffffffffffffffffffffffffffffffffffffff021916908373ffffffffffffffffffffffffffffffffffffffff1602179055508173ffffffffffffffffffffffffffffffffffffffff168173ffffffffffffffffffffffffffffffffffffffff167f8be0079c531659141344cd1fd0a4f28419497f9722a3daafe3b4186f6b6457e060405160405180910390a35050565b600073ffffffffffffffffffffffffffffffffffffffff168273ffffffffffffffffffffffffffffffffffffffff16036113a057816040517f5b08ba180000000000000000000000000000000000000000000000000000000081526004016113979190611d16565b60405180910390fd5b80600560008573ffffffffffffffffffffffffffffffffffffffff1673ffffffffffffffffffffffffffffffffffffffff16815260200190815260200160002060008473ffffffffffffffffffffffffffffffffffffffff1673ffffffffffffffffffffffffffffffffffffffff16815260200190815260200160002060006101000a81548160ff0219169083151502179055508173ffffffffffffffffffffffffffffffffffffffff168373ffffffffffffffffffffffffffffffffffffffff167f17307eab39ab6107e8899845ad3d59bd9653f200f220920489ca2b5937696c31836040516114919190611ba5565b60405180910390a3505050565b60008373ffffffffffffffffffffffffffffffffffffffff163b111561164f578273ffffffffffffffffffffffffffffffffffffffff1663150b7a026114e2610f90565b8685856040518563ffffffff1660e01b815260040161150494939291906126cc565b6020604051808303816000875af192505050801561154057506040513d601f19601f8201168201806040525081019061153d919061272d565b60015b6115c4573d8060008114611570576040519150601f19603f3d011682016040523d82523d6000602084013e611575565b606091505b5060008151036115bc57836040517f64a0ae920000000000000000000000000000000000000000000000000000000081526004016115b39190611d16565b60405180910390fd5b805181602001fd5b63150b7a0260e01b7bffffffffffffffffffffffffffffffffffffffffffffffffffffffff1916817bffffffffffffffffffffffffffffffffffffffffffffffffffffffff19161461164d57836040517f64a0ae920000000000000000000000000000000000000000000000000000000081526004016116449190611d16565b60405180910390fd5b505b50505050565b60006002600083815260200190815260200160002060009054906101000a900473ffffffffffffffffffffffffffffffffffffffff169050919050565b80806116cb5750600073ffffffffffffffffffffffffffffffffffffffff168273ffffffffffffffffffffffffffffffffffffffff1614155b156117ff5760006116db84610ecb565b9050600073ffffffffffffffffffffffffffffffffffffffff168373ffffffffffffffffffffffffffffffffffffffff161415801561174657508273ffffffffffffffffffffffffffffffffffffffff168173ffffffffffffffffffffffffffffffffffffffff1614155b801561175957506117578184610d47565b155b1561179b57826040517fa9fbf51f0000000000000000000000000000000000000000000000000000000081526004016117929190611d16565b60405180910390fd5b81156117fd57838573ffffffffffffffffffffffffffffffffffffffff168273ffffffffffffffffffffffffffffffffffffffff167f8c5be1e5ebec7d5bd14f71427d1e84f3dd0314c0f7b2291e5b200ac8c7c3b92560405160405180910390a45b505b836004600085815260200190815260200160002060006101000a81548173ffffffffffffffffffffffffffffffffffffffff021916908373ffffffffffffffffffffffffffffffffffffffff16021790555050505050565b611862838383611937565b61191657600073ffffffffffffffffffffffffffffffffffffffff168373ffffffffffffffffffffffffffffffffffffffff16036118d757806040517f7e2732890000000000000000000000000000000000000000000000000000000081526004016118ce9190611e5c565b60405180910390fd5b81816040517f177e802f00000000000000000000000000000000000000000000000000000000815260040161190d92919061275a565b60405180910390fd5b505050565b61192583836119f8565b611932600084848461149e565b505050565b60008073ffffffffffffffffffffffffffffffffffffffff168373ffffffffffffffffffffffffffffffffffffffff16141580156119ef57508273ffffffffffffffffffffffffffffffffffffffff168473ffffffffffffffffffffffffffffffffffffffff1614806119b057506119af8484610d47565b5b806119ee57508273ffffffffffffffffffffffffffffffffffffffff166119d683610f53565b73ffffffffffffffffffffffffffffffffffffffff16145b5b90509392505050565b600073ffffffffffffffffffffffffffffffffffffffff168273ffffffffffffffffffffffffffffffffffffffff1603611a6a5760006040517f64a0ae92000000000000000000000000000000000000000000000000000000008152600401611a619190611d16565b60405180910390fd5b6000611a7883836000610faa565b9050600073ffffffffffffffffffffffffffffffffffffffff168173ffffffffffffffffffffffffffffffffffffffff1614611aec5760006040517f73c6ac6e000000000000000000000000000000000000000000000000000000008152600401611ae39190611d16565b60405180910390fd5b505050565b6000604051905090565b600080fd5b600080fd5b60007fffffffff0000000000000000000000000000000000000000000000000000000082169050919050565b611b3a81611b05565b8114611b4557600080fd5b50565b600081359050611b5781611b31565b92915050565b600060208284031215611b7357611b72611afb565b5b6000611b8184828501611b48565b91505092915050565b60008115159050919050565b611b9f81611b8a565b82525050565b6000602082019050611bba6000830184611b96565b92915050565b600081519050919050565b600082825260208201905092915050565b60005b83811015611bfa578082015181840152602081019050611bdf565b60008484015250505050565b6000601f19601f8301169050919050565b6000611c2282611bc0565b611c2c8185611bcb565b9350611c3c818560208601611bdc565b611c4581611c06565b840191505092915050565b60006020820190508181036000830152611c6a8184611c17565b905092915050565b6000819050919050565b611c8581611c72565b8114611c9057600080fd5b50565b600081359050611ca281611c7c565b92915050565b600060208284031215611cbe57611cbd611afb565b5b6000611ccc84828501611c93565b91505092915050565b600073ffffffffffffffffffffffffffffffffffffffff82169050919050565b6000611d0082611cd5565b9050919050565b611d1081611cf5565b82525050565b6000602082019050611d2b6000830184611d07565b92915050565b611d3a81611cf5565b8114611d4557600080fd5b50565b600081359050611d5781611d31565b92915050565b60008060408385031215611d7457611d73611afb565b5b6000611d8285828601611d48565b9250506020611d9385828601611c93565b9150509250929050565b60006040820190508181036000830152611db78185611c17565b9050611dc66020830184611b96565b9392505050565b600080600060608486031215611de657611de5611afb565b5b6000611df486828701611d48565b9350506020611e0586828701611d48565b9250506040611e1686828701611c93565b9150509250925092565b600060208284031215611e3657611e35611afb565b5b6000611e4484828501611d48565b91505092915050565b611e5681611c72565b82525050565b6000602082019050611e716000830184611e4d565b92915050565b600080fd5b600080fd5b7f4e487b7100000000000000000000000000000000000000000000000000000000600052604160045260246000fd5b611eb982611c06565b810181811067ffffffffffffffff82111715611ed857611ed7611e81565b5b80604052505050565b6000611eeb611af1565b9050611ef78282611eb0565b919050565b600067ffffffffffffffff821115611f1757611f16611e81565b5b611f2082611c06565b9050602081019050919050565b82818337600083830152505050565b6000611f4f611f4a84611efc565b611ee1565b905082815260208101848484011115611f6b57611f6a611e7c565b5b611f76848285611f2d565b509392505050565b600082601f830112611f9357611f92611e77565b5b8135611fa3848260208601611f3c565b91505092915050565b60008060408385031215611fc357611fc2611afb565b5b6000611fd185828601611c93565b925050602083013567ffffffffffffffff811115611ff257611ff1611b00565b5b611ffe85828601611f7e565b9150509250929050565b61201181611b8a565b811461201c57600080fd5b50565b60008135905061202e81612008565b92915050565b6000806040838503121561204b5761204a611afb565b5b600061205985828601611d48565b925050602061206a8582860161201f565b9150509250929050565b600067ffffffffffffffff82111561208f5761208e611e81565b5b61209882611c06565b9050602081019050919050565b60006120b86120b384612074565b611ee1565b9050828152602081018484840111156120d4576120d3611e7c565b5b6120df848285611f2d565b509392505050565b600082601f8301126120fc576120fb611e77565b5b813561210c8482602086016120a5565b91505092915050565b6000806000806080858703121561212f5761212e611afb565b5b600061213d87828801611d48565b945050602061214e87828801611d48565b935050604061215f87828801611c93565b925050606085013567ffffffffffffffff8111156121805761217f611b00565b5b61218c878288016120e7565b91505092959194509250565b600080604083850312156121af576121ae611afb565b5b60006121bd85828601611d48565b92505060206121ce85828601611d48565b9150509250929050565b7f4e487b7100000000000000000000000000000000000000000000000000000000600052602260045260246000fd5b6000600282049050600182168061221f57607f821691505b602082108103612232576122316121d8565b5b50919050565b600060608201905061224d6000830186611d07565b61225a6020830185611e4d565b6122676040830184611d07565b949350505050565b7f4e487b7100000000000000000000000000000000000000000000000000000000600052601160045260246000fd5b60006122a982611c72565b91507fffffffffffffffffffffffffffffffffffffffffffffffffffffffffffffffff82036122db576122da61226f565b5b600182019050919050565b6000815490506122f581612207565b9050919050565b60008190508160005260206000209050919050565b60008190508160005260206000209050919050565b60006020601f8301049050919050565b600082821b905092915050565b6000600883026123737fffffffffffffffffffffffffffffffffffffffffffffffffffffffffffffffff82612336565b61237d8683612336565b95508019841693508086168417925050509392505050565b6000819050919050565b60006123ba6123b56123b084611c72565b612395565b611c72565b9050919050565b6000819050919050565b6123d48361239f565b6123e86123e0826123c1565b848454612343565b825550505050565b600090565b6123fd6123f0565b6124088184846123cb565b505050565b5b8181101561242c576124216000826123f5565b60018101905061240e565b5050565b601f82111561247157612442816122fc565b61244b84612326565b8101602085101561245a578190505b61246e61246685612326565b83018261240d565b50505b505050565b600082821c905092915050565b600061249460001984600802612476565b1980831691505092915050565b60006124ad8383612483565b9150826002028217905092915050565b8181036124cb5750506125a3565b6124d4826122e6565b67ffffffffffffffff8111156124ed576124ec611e81565b5b6124f78254612207565b612502828285612430565b6000601f831160018114612531576000841561251f578287015490505b61252985826124a1565b86555061259c565b601f19841661253f87612311565b965061254a866122fc565b60005b828110156125725784890154825560018201915060018501945060208101905061254d565b8683101561258f578489015461258b601f891682612483565b8355505b6001600288020188555050505b5050505050505b565b6125ae82611bc0565b67ffffffffffffffff8111156125c7576125c6611e81565b5b6125d18254612207565b6125dc828285612430565b600060209050601f83116001811461260f57600084156125fd578287015190505b61260785826124a1565b86555061266f565b601f19841661261d866122fc565b60005b8281101561264557848901518255600182019150602085019450602081019050612620565b86831015612662578489015161265e601f891682612483565b8355505b6001600288020188555050505b505050505050565b600081519050919050565b600082825260208201905092915050565b600061269e82612677565b6126a88185612682565b93506126b8818560208601611bdc565b6126c181611c06565b840191505092915050565b60006080820190506126e16000830187611d07565b6126ee6020830186611d07565b6126fb6040830185611e4d565b818103606083015261270d8184612693565b905095945050505050565b60008151905061272781611b31565b92915050565b60006020828403121561274357612742611afb565b5b600061275184828501612718565b91505092915050565b600060408201905061276f6000830185611d07565b61277c6020830184611e4d565b939250505056fea2646970667358221220b8ebeb2acaeb65b3c4e06638c4729f161229462be0e01ba4989b06d16133361664736f6c6343000818003368747470733a2f2f6170692e64696365626561722e636f6d2f392e782f626f747474732d6e65757472616c2f7376673f736565643d4a6f686e",
  "linkReferences": {},
  "deployedLinkReferences": {}
}