{
  "_format": "hh-sol-artifact-1",
  "contractName": "Prereveal",
  "sourceName": "contracts/Prereveal.sol",
  "abi": [
    {
      "inputs": [],
      "stateMutability": "nonpayable",
      "type": "constructor"
    },
    {
      "inputs": [
        {
          "internalType": "address",
          "name": "sender",
          "type": "address"
        },
        {
          "internalType": "uint256",
          "name": "tokenId",
          "type": "uint256"
        },
        {
          "internalType": "address",
          "name": "owner",
          "type": "address"
        }
      ],
      "name": "ERC721IncorrectOwner",
      "type": "error"
    },
    {
      "inputs": [
        {
          "internalType": "address",
          "name": "operator",
          "type": "address"
        },
        {
          "internalType": "uint256",
          "name": "tokenId",
          "type": "uint256"
        }
      ],
      "name": "ERC721InsufficientApproval",
      "type": "error"
    },
    {
      "inputs": [
        {
          "internalType": "address",
          "name": "approver",
          "type": "address"
        }
      ],
      "name": "ERC721InvalidApprover",
      "type": "error"
    },
    {
      "inputs": [
        {
          "internalType": "address",
          "name": "operator",
          "type": "address"
        }
      ],
      "name": "ERC721InvalidOperator",
      "type": "error"
    },
    {
      "inputs": [
        {
          "internalType": "address",
          "name": "owner",
          "type": "address"
        }
      ],
      "name": "ERC721InvalidOwner",
      "type": "error"
    },
    {
      "inputs": [
        {
          "internalType": "address",
          "name": "receiver",
          "type": "address"
        }
      ],
      "name": "ERC721InvalidReceiver",
      "type": "error"
    },
    {
      "inputs": [
        {
          "internalType": "address",
          "name": "sender",
          "type": "address"
        }
      ],
      "name": "ERC721InvalidSender",
      "type": "error"
    },
    {
      "inputs": [
        {
          "internalType": "uint256",
          "name": "tokenId",
          "type": "uint256"
        }
      ],
      "name": "ERC721NonexistentToken",
      "type": "error"
    },
    {
      "inputs": [
        {
          "internalType": "address",
          "name": "owner",
          "type": "address"
        }
      ],
      "name": "OwnableInvalidOwner",
      "type": "error"
    },
    {
      "inputs": [
        {
          "internalType": "address",
          "name": "account",
          "type": "address"
        }
      ],
      "name": "OwnableUnauthorizedAccount",
      "type": "error"
    },
    {
      "anonymous": false,
      "inputs": [
        {
          "indexed": true,
          "internalType": "address",
          "name": "owner",
          "type": "address"
        },
        {
          "indexed": true,
          "internalType": "address",
          "name": "approved",
          "type": "address"
        },
        {
          "indexed": true,
          "internalType": "uint256",
          "name": "tokenId",
          "type": "uint256"
        }
      ],
      "name": "Approval",
      "type": "event"
    },
    {
      "anonymous": false,
      "inputs": [
        {
          "indexed": true,
          "internalType": "address",
          "name": "owner",
          "type": "address"
        },
        {
          "indexed": true,
          "internalType": "address",
          "name": "operator",
          "type": "address"
        },
        {
          "indexed": false,
          "internalType": "bool",
          "name": "approved",
          "type": "bool"
        }
      ],
      "name": "ApprovalForAll",
      "type": "event"
    },
    {
      "anonymous": false,
      "inputs": [
        {
          "indexed": true,
          "internalType": "address",
          "name": "previousOwner",
          "type": "address"
        },
        {
          "indexed": true,
          "internalType": "address",
          "name": "newOwner",
          "type": "address"
        }
      ],
      "name": "OwnershipTransferred",
      "type": "event"
    },
    {
      "anonymous": false,
      "inputs": [
        {
          "indexed": true,
          "internalType": "address",
          "name": "from",
          "type": "address"
        },
        {
          "indexed": true,
          "internalType": "address",
          "name": "to",
          "type": "address"
        },
        {
          "indexed": true,
          "internalType": "uint256",
          "name": "tokenId",
          "type": "uint256"
        }
      ],
      "name": "Transfer",
      "type": "event"
    },
    {
      "anonymous": false,
      "inputs": [
        {
          "indexed": false,
          "internalType": "uint256",
          "name": "_tokenId",
          "type": "uint256"
        },
        {
          "indexed": false,
          "internalType": "string",
          "name": "_uri",
          "type": "string"
        },
        {
          "indexed": false,
          "internalType": "bool",
          "name": "_isReveal",
          "type": "bool"
        }
      ],
      "name": "URILog",
      "type": "event"
    },
    {
      "inputs": [
        {
          "internalType": "address",
          "name": "to",
          "type": "address"
        },
        {
          "internalType": "uint256",
          "name": "tokenId",
          "type": "uint256"
        }
      ],
      "name": "approve",
      "outputs": [],
      "stateMutability": "nonpayable",
      "type": "function"
    },
    {
      "inputs": [
        {
          "internalType": "address",
          "name": "owner",
          "type": "address"
        }
      ],
      "name": "balanceOf",
      "outputs": [
        {
          "internalType": "uint256",
          "name": "",
          "type": "uint256"
        }
      ],
      "stateMutability": "view",
      "type": "function"
    },
    {
      "inputs": [
        {
          "internalType": "uint256",
          "name": "tokenId",
          "type": "uint256"
        }
      ],
      "name": "getApproved",
      "outputs": [
        {
          "internalType": "address",
          "name": "",
          "type": "address"
        }
      ],
      "stateMutability": "view",
      "type": "function"
    },
    {
      "inputs": [
        {
          "internalType": "address",
          "name": "owner",
          "type": "address"
        },
        {
          "internalType": "address",
          "name": "operator",
          "type": "address"
        }
      ],
      "name": "isApprovedForAll",
      "outputs": [
        {
          "internalType": "bool",
          "name": "",
          "type": "bool"
        }
      ],
      "stateMutability": "view",
      "type": "function"
    },
    {
      "inputs": [
        {
          "internalType": "uint256",
          "name": "",
          "type": "uint256"
        }
      ],
      "name": "items",
      "outputs": [
        {
          "internalType": "string",
          "name": "uri",
          "type": "string"
        },
        {
          "internalType": "bool",
          "name": "isReveal",
          "type": "bool"
        }
      ],
      "stateMutability": "view",
      "type": "function"
    },
    {
      "inputs": [],
      "name": "name",
      "outputs": [
        {
          "internalType": "string",
          "name": "",
          "type": "string"
        }
      ],
      "stateMutability": "view",
      "type": "function"
    },
    {
      "inputs": [],
      "name": "nextTokenId",
      "outputs": [
        {
          "internalType": "uint256",
          "name": "",
          "type": "uint256"
        }
      ],
      "stateMutability": "view",
      "type": "function"
    },
    {
      "inputs": [],
      "name": "owner",
      "outputs": [
        {
          "internalType": "address",
          "name": "",
          "type": "address"
        }
      ],
      "stateMutability": "view",
      "type": "function"
    },
    {
      "inputs": [
        {
          "internalType": "uint256",
          "name": "tokenId",
          "type": "uint256"
        }
      ],
      "name": "ownerOf",
      "outputs": [
        {
          "internalType": "address",
          "name": "",
          "type": "address"
        }
      ],
      "stateMutability": "view",
      "type": "function"
    },
    {
      "inputs": [],
      "name": "renounceOwnership",
      "outputs": [],
      "stateMutability": "nonpayable",
      "type": "function"
    },
    {
      "inputs": [
        {
          "internalType": "uint256",
          "name": "tokenId",
          "type": "uint256"
        },
        {
          "internalType": "string",
          "name": "baseURI_",
          "type": "string"
        }
      ],
      "name": "revealAndSetBaseURI",
      "outputs": [],
      "stateMutability": "nonpayable",
      "type": "function"
    },
    {
      "inputs": [
        {
          "internalType": "address",
          "name": "to",
          "type": "address"
        }
      ],
      "name": "safeMint",
      "outputs": [],
      "stateMutability": "nonpayable",
      "type": "function"
    },
    {
      "inputs": [
        {
          "internalType": "address",
          "name": "from",
          "type": "address"
        },
        {
          "internalType": "address",
          "name": "to",
          "type": "address"
        },
        {
          "internalType": "uint256",
          "name": "tokenId",
          "type": "uint256"
        }
      ],
      "name": "safeTransferFrom",
      "outputs": [],
      "stateMutability": "nonpayable",
      "type": "function"
    },
    {
      "inputs": [
        {
          "internalType": "address",
          "name": "from",
          "type": "address"
        },
        {
          "internalType": "address",
          "name": "to",
          "type": "address"
        },
        {
          "internalType": "uint256",
          "name": "tokenId",
          "type": "uint256"
        },
        {
          "internalType": "bytes",
          "name": "data",
          "type": "bytes"
        }
      ],
      "name": "safeTransferFrom",
      "outputs": [],
      "stateMutability": "nonpayable",
      "type": "function"
    },
    {
      "inputs": [
        {
          "internalType": "address",
          "name": "operator",
          "type": "address"
        },
        {
          "internalType": "bool",
          "name": "approved",
          "type": "bool"
        }
      ],
      "name": "setApprovalForAll",
      "outputs": [],
      "stateMutability": "nonpayable",
      "type": "function"
    },
    {
      "inputs": [
        {
          "internalType": "uint256",
          "name": "tokenId",
          "type": "uint256"
        },
        {
          "internalType": "string",
          "name": "_prerevealedURI",
          "type": "string"
        }
      ],
      "name": "setPrerevealURI",
      "outputs": [],
      "stateMutability": "nonpayable",
      "type": "function"
    },
    {
      "inputs": [
        {
          "internalType": "bytes4",
          "name": "interfaceId",
          "type": "bytes4"
        }
      ],
      "name": "supportsInterface",
      "outputs": [
        {
          "internalType": "bool",
          "name": "",
          "type": "bool"
        }
      ],
      "stateMutability": "view",
      "type": "function"
    },
    {
      "inputs": [],
      "name": "symbol",
      "outputs": [
        {
          "internalType": "string",
          "name": "",
          "type": "string"
        }
      ],
      "stateMutability": "view",
      "type": "function"
    },
    {
      "inputs": [
        {
          "internalType": "uint256",
          "name": "tokenId",
          "type": "uint256"
        }
      ],
      "name": "tokenURI",
      "outputs": [
        {
          "internalType": "string",
          "name": "",
          "type": "string"
        }
      ],
      "stateMutability": "view",
      "type": "function"
    },
    {
      "inputs": [
        {
          "internalType": "uint256",
          "name": "_tokenId",
          "type": "uint256"
        }
      ],
      "name": "tokenURL",
      "outputs": [
        {
          "internalType": "string",
          "name": "",
          "type": "string"
        }
      ],
      "stateMutability": "view",
      "type": "function"
    },
    {
      "inputs": [
        {
          "internalType": "address",
          "name": "from",
          "type": "address"
        },
        {
          "internalType": "address",
          "name": "to",
          "type": "address"
        },
        {
          "internalType": "uint256",
          "name": "tokenId",
          "type": "uint256"
        }
      ],
      "name": "transferFrom",
      "outputs": [],
      "stateMutability": "nonpayable",
      "type": "function"
    },
    {
      "inputs": [
        {
          "internalType": "address",
          "name": "newOwner",
          "type": "address"
        }
      ],
      "name": "transferOwnership",
      "outputs": [],
      "stateMutability": "nonpayable",
      "type": "function"
    }
  ],
  "bytecode": "0x608060405260405180606001604052806039815260200162002d7b60399139600890816200002e9190620004be565b5060405180602001604052806000815250600990816200004f9190620004be565b503480156200005d57600080fd5b50336040518060400160405280600781526020017f4d79546f6b656e000000000000000000000000000000000000000000000000008152506040518060400160405280600381526020017f4d544b00000000000000000000000000000000000000000000000000000000008152508160009081620000dc9190620004be565b508060019081620000ee9190620004be565b505050600073ffffffffffffffffffffffffffffffffffffffff168173ffffffffffffffffffffffffffffffffffffffff1603620001665760006040517f1e4fbdf70000000000000000000000000000000000000000000000000000000081526004016200015d9190620005ea565b60405180910390fd5b62000177816200017e60201b60201c565b5062000607565b6000600660009054906101000a900473ffffffffffffffffffffffffffffffffffffffff16905081600660006101000a81548173ffffffffffffffffffffffffffffffffffffffff021916908373ffffffffffffffffffffffffffffffffffffffff1602179055508173ffffffffffffffffffffffffffffffffffffffff168173ffffffffffffffffffffffffffffffffffffffff167f8be0079c531659141344cd1fd0a4f28419497f9722a3daafe3b4186f6b6457e060405160405180910390a35050565b600081519050919050565b7f4e487b7100000000000000000000000000000000000000000000000000000000600052604160045260246000fd5b7f4e487b7100000000000000000000000000000000000000000000000000000000600052602260045260246000fd5b60006002820490506001821680620002c657607f821691505b602082108103620002dc57620002db6200027e565b5b50919050565b60008190508160005260206000209050919050565b60006020601f8301049050919050565b600082821b905092915050565b600060088302620003467fffffffffffffffffffffffffffffffffffffffffffffffffffffffffffffffff8262000307565b62000352868362000307565b95508019841693508086168417925050509392505050565b6000819050919050565b6000819050919050565b60006200039f6200039962000393846200036a565b62000374565b6200036a565b9050919050565b6000819050919050565b620003bb836200037e565b620003d3620003ca82620003a6565b84845462000314565b825550505050565b600090565b620003ea620003db565b620003f7818484620003b0565b505050565b5b818110156200041f5762000413600082620003e0565b600181019050620003fd565b5050565b601f8211156200046e576200043881620002e2565b6200044384620002f7565b8101602085101562000453578190505b6200046b6200046285620002f7565b830182620003fc565b50505b505050565b600082821c905092915050565b6000620004936000198460080262000473565b1980831691505092915050565b6000620004ae838362000480565b9150826002028217905092915050565b620004c98262000244565b67ffffffffffffffff811115620004e557620004e46200024f565b5b620004f18254620002ad565b620004fe82828562000423565b600060209050601f83116001811462000536576000841562000521578287015190505b6200052d8582620004a0565b8655506200059d565b601f1984166200054686620002e2565b60005b82811015620005705784890151825560018201915060208501945060208101905062000549565b868310156200059057848901516200058c601f89168262000480565b8355505b6001600288020188555050505b505050505050565b600073ffffffffffffffffffffffffffffffffffffffff82169050919050565b6000620005d282620005a5565b9050919050565b620005e481620005c5565b82525050565b6000602082019050620006016000830184620005d9565b92915050565b61276480620006176000396000f3fe608060405234801561001057600080fd5b50600436106101425760003560e01c806375794a3c116100b8578063b88d4fde1161007c578063b88d4fde14610361578063bfb231d21461037d578063c87b56dd146103ae578063e901183c146103de578063e985e9c5146103fa578063f2fde38b1461042a57610142565b806375794a3c146102cf578063892beb2d146102ed5780638da5cb5b1461030957806395d89b4114610327578063a22cb4651461034557610142565b806323b872dd1161010a57806323b872dd1461021157806340d097c31461022d57806342842e0e146102495780636352211e1461026557806370a0823114610295578063715018a6146102c557610142565b806301ffc9a71461014757806306fdde0314610177578063081812fc14610195578063095ea7b3146101c5578063154e839e146101e1575b600080fd5b610161600480360381019061015c9190611b08565b610446565b60405161016e9190611b50565b60405180910390f35b61017f610528565b60405161018c9190611bfb565b60405180910390f35b6101af60048036038101906101aa9190611c53565b6105ba565b6040516101bc9190611cc1565b60405180910390f35b6101df60048036038101906101da9190611d08565b6105d6565b005b6101fb60048036038101906101f69190611c53565b6105ec565b6040516102089190611bfb565b60405180910390f35b61022b60048036038101906102269190611d48565b610764565b005b61024760048036038101906102429190611d9b565b610866565b005b610263600480360381019061025e9190611d48565b6108bc565b005b61027f600480360381019061027a9190611c53565b6108dc565b60405161028c9190611cc1565b60405180910390f35b6102af60048036038101906102aa9190611d9b565b6108ee565b6040516102bc9190611dd7565b60405180910390f35b6102cd6109a8565b005b6102d76109bc565b6040516102e49190611dd7565b60405180910390f35b61030760048036038101906103029190611f27565b6109c2565b005b610311610a21565b60405161031e9190611cc1565b60405180910390f35b61032f610a4b565b60405161033c9190611bfb565b60405180910390f35b61035f600480360381019061035a9190611faf565b610add565b005b61037b60048036038101906103769190612090565b610af3565b005b61039760048036038101906103929190611c53565b610b10565b6040516103a5929190612113565b60405180910390f35b6103c860048036038101906103c39190611c53565b610bc9565b6040516103d59190611bfb565b60405180910390f35b6103f860048036038101906103f39190611f27565b610c93565b005b610414600480360381019061040f9190612143565b610cf2565b6040516104219190611b50565b60405180910390f35b610444600480360381019061043f9190611d9b565b610d86565b005b60007f80ac58cd000000000000000000000000000000000000000000000000000000007bffffffffffffffffffffffffffffffffffffffffffffffffffffffff1916827bffffffffffffffffffffffffffffffffffffffffffffffffffffffff1916148061051157507f5b5e139f000000000000000000000000000000000000000000000000000000007bffffffffffffffffffffffffffffffffffffffffffffffffffffffff1916827bffffffffffffffffffffffffffffffffffffffffffffffffffffffff1916145b80610521575061052082610e0c565b5b9050919050565b606060008054610537906121b2565b80601f0160208091040260200160405190810160405280929190818152602001828054610563906121b2565b80156105b05780601f10610585576101008083540402835291602001916105b0565b820191906000526020600020905b81548152906001019060200180831161059357829003601f168201915b5050505050905090565b60006105c582610e76565b506105cf82610efe565b9050919050565b6105e882826105e3610f3b565b610f43565b5050565b6060600a600083815260200190815260200160002060010160009054906101000a900460ff16156106bd57600a60008381526020019081526020016000206000018054610638906121b2565b80601f0160208091040260200160405190810160405280929190818152602001828054610664906121b2565b80156106b15780601f10610686576101008083540402835291602001916106b1565b820191906000526020600020905b81548152906001019060200180831161069457829003601f168201915b5050505050905061075f565b600a600083815260200190815260200160002060000180546106de906121b2565b80601f016020809104026020016040519081016040528092919081815260200182805461070a906121b2565b80156107575780601f1061072c57610100808354040283529160200191610757565b820191906000526020600020905b81548152906001019060200180831161073a57829003601f168201915b505050505090505b919050565b600073ffffffffffffffffffffffffffffffffffffffff168273ffffffffffffffffffffffffffffffffffffffff16036107d65760006040517f64a0ae920000000000000000000000000000000000000000000000000000000081526004016107cd9190611cc1565b60405180910390fd5b60006107ea83836107e5610f3b565b610f55565b90508373ffffffffffffffffffffffffffffffffffffffff168173ffffffffffffffffffffffffffffffffffffffff1614610860578382826040517f64283d7b000000000000000000000000000000000000000000000000000000008152600401610857939291906121e3565b60405180910390fd5b50505050565b61086e61116f565b60006007600081548092919061088390612249565b91905055905061089382826111f6565b6008600a600083815260200190815260200160002060000190816108b79190612468565b505050565b6108d783838360405180602001604052806000815250610af3565b505050565b60006108e782610e76565b9050919050565b60008073ffffffffffffffffffffffffffffffffffffffff168273ffffffffffffffffffffffffffffffffffffffff16036109615760006040517f89c62b640000000000000000000000000000000000000000000000000000000081526004016109589190611cc1565b60405180910390fd5b600360008373ffffffffffffffffffffffffffffffffffffffff1673ffffffffffffffffffffffffffffffffffffffff168152602001908152602001600020549050919050565b6109b061116f565b6109ba6000611214565b565b60075481565b6109ca61116f565b6001600a600084815260200190815260200160002060010160006101000a81548160ff02191690831515021790555080600a60008481526020019081526020016000206000019081610a1c9190612550565b505050565b6000600660009054906101000a900473ffffffffffffffffffffffffffffffffffffffff16905090565b606060018054610a5a906121b2565b80601f0160208091040260200160405190810160405280929190818152602001828054610a86906121b2565b8015610ad35780601f10610aa857610100808354040283529160200191610ad3565b820191906000526020600020905b815481529060010190602001808311610ab657829003601f168201915b5050505050905090565b610aef610ae8610f3b565b83836112da565b5050565b610afe848484610764565b610b0a84848484611449565b50505050565b600a602052806000526040600020600091509050806000018054610b33906121b2565b80601f0160208091040260200160405190810160405280929190818152602001828054610b5f906121b2565b8015610bac5780601f10610b8157610100808354040283529160200191610bac565b820191906000526020600020905b815481529060010190602001808311610b8f57829003601f168201915b5050505050908060010160009054906101000a900460ff16905082565b6060600a600083815260200190815260200160002060010160009054906101000a905050600a60008381526020019081526020016000206000018054610c0e906121b2565b80601f0160208091040260200160405190810160405280929190818152602001828054610c3a906121b2565b8015610c875780601f10610c5c57610100808354040283529160200191610c87565b820191906000526020600020905b815481529060010190602001808311610c6a57829003601f168201915b50505050509050919050565b610c9b61116f565b6001600a600084815260200190815260200160002060010160006101000a81548160ff02191690831515021790555080600a60008481526020019081526020016000206000019081610ced9190612550565b505050565b6000600560008473ffffffffffffffffffffffffffffffffffffffff1673ffffffffffffffffffffffffffffffffffffffff16815260200190815260200160002060008373ffffffffffffffffffffffffffffffffffffffff1673ffffffffffffffffffffffffffffffffffffffff16815260200190815260200160002060009054906101000a900460ff16905092915050565b610d8e61116f565b600073ffffffffffffffffffffffffffffffffffffffff168173ffffffffffffffffffffffffffffffffffffffff1603610e005760006040517f1e4fbdf7000000000000000000000000000000000000000000000000000000008152600401610df79190611cc1565b60405180910390fd5b610e0981611214565b50565b60007f01ffc9a7000000000000000000000000000000000000000000000000000000007bffffffffffffffffffffffffffffffffffffffffffffffffffffffff1916827bffffffffffffffffffffffffffffffffffffffffffffffffffffffff1916149050919050565b600080610e8283611600565b9050600073ffffffffffffffffffffffffffffffffffffffff168173ffffffffffffffffffffffffffffffffffffffff1603610ef557826040517f7e273289000000000000000000000000000000000000000000000000000000008152600401610eec9190611dd7565b60405180910390fd5b80915050919050565b60006004600083815260200190815260200160002060009054906101000a900473ffffffffffffffffffffffffffffffffffffffff169050919050565b600033905090565b610f50838383600161163d565b505050565b600080610f6184611600565b9050600073ffffffffffffffffffffffffffffffffffffffff168373ffffffffffffffffffffffffffffffffffffffff1614610fa357610fa2818486611802565b5b600073ffffffffffffffffffffffffffffffffffffffff168173ffffffffffffffffffffffffffffffffffffffff161461103457610fe560008560008061163d565b6001600360008373ffffffffffffffffffffffffffffffffffffffff1673ffffffffffffffffffffffffffffffffffffffff168152602001908152602001600020600082825403925050819055505b600073ffffffffffffffffffffffffffffffffffffffff168573ffffffffffffffffffffffffffffffffffffffff16146110b7576001600360008773ffffffffffffffffffffffffffffffffffffffff1673ffffffffffffffffffffffffffffffffffffffff168152602001908152602001600020600082825401925050819055505b846002600086815260200190815260200160002060006101000a81548173ffffffffffffffffffffffffffffffffffffffff021916908373ffffffffffffffffffffffffffffffffffffffff160217905550838573ffffffffffffffffffffffffffffffffffffffff168273ffffffffffffffffffffffffffffffffffffffff167fddf252ad1be2c89b69c2b068fc378daa952ba7f163c4a11628f55a4df523b3ef60405160405180910390a4809150509392505050565b611177610f3b565b73ffffffffffffffffffffffffffffffffffffffff16611195610a21565b73ffffffffffffffffffffffffffffffffffffffff16146111f4576111b8610f3b565b6040517f118cdaa70000000000000000000000000000000000000000000000000000000081526004016111eb9190611cc1565b60405180910390fd5b565b6112108282604051806020016040528060008152506118c6565b5050565b6000600660009054906101000a900473ffffffffffffffffffffffffffffffffffffffff16905081600660006101000a81548173ffffffffffffffffffffffffffffffffffffffff021916908373ffffffffffffffffffffffffffffffffffffffff1602179055508173ffffffffffffffffffffffffffffffffffffffff168173ffffffffffffffffffffffffffffffffffffffff167f8be0079c531659141344cd1fd0a4f28419497f9722a3daafe3b4186f6b6457e060405160405180910390a35050565b600073ffffffffffffffffffffffffffffffffffffffff168273ffffffffffffffffffffffffffffffffffffffff160361134b57816040517f5b08ba180000000000000000000000000000000000000000000000000000000081526004016113429190611cc1565b60405180910390fd5b80600560008573ffffffffffffffffffffffffffffffffffffffff1673ffffffffffffffffffffffffffffffffffffffff16815260200190815260200160002060008473ffffffffffffffffffffffffffffffffffffffff1673ffffffffffffffffffffffffffffffffffffffff16815260200190815260200160002060006101000a81548160ff0219169083151502179055508173ffffffffffffffffffffffffffffffffffffffff168373ffffffffffffffffffffffffffffffffffffffff167f17307eab39ab6107e8899845ad3d59bd9653f200f220920489ca2b5937696c318360405161143c9190611b50565b60405180910390a3505050565b60008373ffffffffffffffffffffffffffffffffffffffff163b11156115fa578273ffffffffffffffffffffffffffffffffffffffff1663150b7a0261148d610f3b565b8685856040518563ffffffff1660e01b81526004016114af9493929190612677565b6020604051808303816000875af19250505080156114eb57506040513d601f19601f820116820180604052508101906114e891906126d8565b60015b61156f573d806000811461151b576040519150601f19603f3d011682016040523d82523d6000602084013e611520565b606091505b50600081510361156757836040517f64a0ae9200000000000000000000000000000000000000000000000000000000815260040161155e9190611cc1565b60405180910390fd5b805181602001fd5b63150b7a0260e01b7bffffffffffffffffffffffffffffffffffffffffffffffffffffffff1916817bffffffffffffffffffffffffffffffffffffffffffffffffffffffff1916146115f857836040517f64a0ae920000000000000000000000000000000000000000000000000000000081526004016115ef9190611cc1565b60405180910390fd5b505b50505050565b60006002600083815260200190815260200160002060009054906101000a900473ffffffffffffffffffffffffffffffffffffffff169050919050565b80806116765750600073ffffffffffffffffffffffffffffffffffffffff168273ffffffffffffffffffffffffffffffffffffffff1614155b156117aa57600061168684610e76565b9050600073ffffffffffffffffffffffffffffffffffffffff168373ffffffffffffffffffffffffffffffffffffffff16141580156116f157508273ffffffffffffffffffffffffffffffffffffffff168173ffffffffffffffffffffffffffffffffffffffff1614155b801561170457506117028184610cf2565b155b1561174657826040517fa9fbf51f00000000000000000000000000000000000000000000000000000000815260040161173d9190611cc1565b60405180910390fd5b81156117a857838573ffffffffffffffffffffffffffffffffffffffff168273ffffffffffffffffffffffffffffffffffffffff167f8c5be1e5ebec7d5bd14f71427d1e84f3dd0314c0f7b2291e5b200ac8c7c3b92560405160405180910390a45b505b836004600085815260200190815260200160002060006101000a81548173ffffffffffffffffffffffffffffffffffffffff021916908373ffffffffffffffffffffffffffffffffffffffff16021790555050505050565b61180d8383836118e2565b6118c157600073ffffffffffffffffffffffffffffffffffffffff168373ffffffffffffffffffffffffffffffffffffffff160361188257806040517f7e2732890000000000000000000000000000000000000000000000000000000081526004016118799190611dd7565b60405180910390fd5b81816040517f177e802f0000000000000000000000000000000000000000000000000000000081526004016118b8929190612705565b60405180910390fd5b505050565b6118d083836119a3565b6118dd6000848484611449565b505050565b60008073ffffffffffffffffffffffffffffffffffffffff168373ffffffffffffffffffffffffffffffffffffffff161415801561199a57508273ffffffffffffffffffffffffffffffffffffffff168473ffffffffffffffffffffffffffffffffffffffff16148061195b575061195a8484610cf2565b5b8061199957508273ffffffffffffffffffffffffffffffffffffffff1661198183610efe565b73ffffffffffffffffffffffffffffffffffffffff16145b5b90509392505050565b600073ffffffffffffffffffffffffffffffffffffffff168273ffffffffffffffffffffffffffffffffffffffff1603611a155760006040517f64a0ae92000000000000000000000000000000000000000000000000000000008152600401611a0c9190611cc1565b60405180910390fd5b6000611a2383836000610f55565b9050600073ffffffffffffffffffffffffffffffffffffffff168173ffffffffffffffffffffffffffffffffffffffff1614611a975760006040517f73c6ac6e000000000000000000000000000000000000000000000000000000008152600401611a8e9190611cc1565b60405180910390fd5b505050565b6000604051905090565b600080fd5b600080fd5b60007fffffffff0000000000000000000000000000000000000000000000000000000082169050919050565b611ae581611ab0565b8114611af057600080fd5b50565b600081359050611b0281611adc565b92915050565b600060208284031215611b1e57611b1d611aa6565b5b6000611b2c84828501611af3565b91505092915050565b60008115159050919050565b611b4a81611b35565b82525050565b6000602082019050611b656000830184611b41565b92915050565b600081519050919050565b600082825260208201905092915050565b60005b83811015611ba5578082015181840152602081019050611b8a565b60008484015250505050565b6000601f19601f8301169050919050565b6000611bcd82611b6b565b611bd78185611b76565b9350611be7818560208601611b87565b611bf081611bb1565b840191505092915050565b60006020820190508181036000830152611c158184611bc2565b905092915050565b6000819050919050565b611c3081611c1d565b8114611c3b57600080fd5b50565b600081359050611c4d81611c27565b92915050565b600060208284031215611c6957611c68611aa6565b5b6000611c7784828501611c3e565b91505092915050565b600073ffffffffffffffffffffffffffffffffffffffff82169050919050565b6000611cab82611c80565b9050919050565b611cbb81611ca0565b82525050565b6000602082019050611cd66000830184611cb2565b92915050565b611ce581611ca0565b8114611cf057600080fd5b50565b600081359050611d0281611cdc565b92915050565b60008060408385031215611d1f57611d1e611aa6565b5b6000611d2d85828601611cf3565b9250506020611d3e85828601611c3e565b9150509250929050565b600080600060608486031215611d6157611d60611aa6565b5b6000611d6f86828701611cf3565b9350506020611d8086828701611cf3565b9250506040611d9186828701611c3e565b9150509250925092565b600060208284031215611db157611db0611aa6565b5b6000611dbf84828501611cf3565b91505092915050565b611dd181611c1d565b82525050565b6000602082019050611dec6000830184611dc8565b92915050565b600080fd5b600080fd5b7f4e487b7100000000000000000000000000000000000000000000000000000000600052604160045260246000fd5b611e3482611bb1565b810181811067ffffffffffffffff82111715611e5357611e52611dfc565b5b80604052505050565b6000611e66611a9c565b9050611e728282611e2b565b919050565b600067ffffffffffffffff821115611e9257611e91611dfc565b5b611e9b82611bb1565b9050602081019050919050565b82818337600083830152505050565b6000611eca611ec584611e77565b611e5c565b905082815260208101848484011115611ee657611ee5611df7565b5b611ef1848285611ea8565b509392505050565b600082601f830112611f0e57611f0d611df2565b5b8135611f1e848260208601611eb7565b91505092915050565b60008060408385031215611f3e57611f3d611aa6565b5b6000611f4c85828601611c3e565b925050602083013567ffffffffffffffff811115611f6d57611f6c611aab565b5b611f7985828601611ef9565b9150509250929050565b611f8c81611b35565b8114611f9757600080fd5b50565b600081359050611fa981611f83565b92915050565b60008060408385031215611fc657611fc5611aa6565b5b6000611fd485828601611cf3565b9250506020611fe585828601611f9a565b9150509250929050565b600067ffffffffffffffff82111561200a57612009611dfc565b5b61201382611bb1565b9050602081019050919050565b600061203361202e84611fef565b611e5c565b90508281526020810184848401111561204f5761204e611df7565b5b61205a848285611ea8565b509392505050565b600082601f83011261207757612076611df2565b5b8135612087848260208601612020565b91505092915050565b600080600080608085870312156120aa576120a9611aa6565b5b60006120b887828801611cf3565b94505060206120c987828801611cf3565b93505060406120da87828801611c3e565b925050606085013567ffffffffffffffff8111156120fb576120fa611aab565b5b61210787828801612062565b91505092959194509250565b6000604082019050818103600083015261212d8185611bc2565b905061213c6020830184611b41565b9392505050565b6000806040838503121561215a57612159611aa6565b5b600061216885828601611cf3565b925050602061217985828601611cf3565b9150509250929050565b7f4e487b7100000000000000000000000000000000000000000000000000000000600052602260045260246000fd5b600060028204905060018216806121ca57607f821691505b6020821081036121dd576121dc612183565b5b50919050565b60006060820190506121f86000830186611cb2565b6122056020830185611dc8565b6122126040830184611cb2565b949350505050565b7f4e487b7100000000000000000000000000000000000000000000000000000000600052601160045260246000fd5b600061225482611c1d565b91507fffffffffffffffffffffffffffffffffffffffffffffffffffffffffffffffff82036122865761228561221a565b5b600182019050919050565b6000815490506122a0816121b2565b9050919050565b60008190508160005260206000209050919050565b60008190508160005260206000209050919050565b60006020601f8301049050919050565b600082821b905092915050565b60006008830261231e7fffffffffffffffffffffffffffffffffffffffffffffffffffffffffffffffff826122e1565b61232886836122e1565b95508019841693508086168417925050509392505050565b6000819050919050565b600061236561236061235b84611c1d565b612340565b611c1d565b9050919050565b6000819050919050565b61237f8361234a565b61239361238b8261236c565b8484546122ee565b825550505050565b600090565b6123a861239b565b6123b3818484612376565b505050565b5b818110156123d7576123cc6000826123a0565b6001810190506123b9565b5050565b601f82111561241c576123ed816122a7565b6123f6846122d1565b81016020851015612405578190505b612419612411856122d1565b8301826123b8565b50505b505050565b600082821c905092915050565b600061243f60001984600802612421565b1980831691505092915050565b6000612458838361242e565b9150826002028217905092915050565b81810361247657505061254e565b61247f82612291565b67ffffffffffffffff81111561249857612497611dfc565b5b6124a282546121b2565b6124ad8282856123db565b6000601f8311600181146124dc57600084156124ca578287015490505b6124d4858261244c565b865550612547565b601f1984166124ea876122bc565b96506124f5866122a7565b60005b8281101561251d578489015482556001820191506001850194506020810190506124f8565b8683101561253a5784890154612536601f89168261242e565b8355505b6001600288020188555050505b5050505050505b565b61255982611b6b565b67ffffffffffffffff81111561257257612571611dfc565b5b61257c82546121b2565b6125878282856123db565b600060209050601f8311600181146125ba57600084156125a8578287015190505b6125b2858261244c565b86555061261a565b601f1984166125c8866122a7565b60005b828110156125f0578489015182556001820191506020850194506020810190506125cb565b8683101561260d5784890151612609601f89168261242e565b8355505b6001600288020188555050505b505050505050565b600081519050919050565b600082825260208201905092915050565b600061264982612622565b612653818561262d565b9350612663818560208601611b87565b61266c81611bb1565b840191505092915050565b600060808201905061268c6000830187611cb2565b6126996020830186611cb2565b6126a66040830185611dc8565b81810360608301526126b8818461263e565b905095945050505050565b6000815190506126d281611adc565b92915050565b6000602082840312156126ee576126ed611aa6565b5b60006126fc848285016126c3565b91505092915050565b600060408201905061271a6000830185611cb2565b6127276020830184611dc8565b939250505056fea2646970667358221220d265ef5d8cdf2c0fc0500bb00048f00123574757e948e18dd63dee3090d4050e64736f6c6343000818003368747470733a2f2f6170692e64696365626561722e636f6d2f392e782f626f747474732d6e65757472616c2f7376673f736565643d4a6f686e",
  "linkReferences": {},
  "deployedLinkReferences": {}
}